{
	"data": {
		"bytecode": {
			"linkReferences": {},
			"object": "608060405234801561001057600080fd5b506102f2806100206000396000f3fe60806040526004361061003f5760003560e01c80633fa4f245146100445780634e70b1dc1461006f57806367e404ce1461009a578063d1e0f308146100f1575b600080fd5b34801561005057600080fd5b5061005961013f565b6040518082815260200191505060405180910390f35b34801561007b57600080fd5b50610084610145565b6040518082815260200191505060405180910390f35b3480156100a657600080fd5b506100af61014b565b604051808273ffffffffffffffffffffffffffffffffffffffff1673ffffffffffffffffffffffffffffffffffffffff16815260200191505060405180910390f35b61013d6004803603604081101561010757600080fd5b81019080803573ffffffffffffffffffffffffffffffffffffffff16906020019092919080359060200190929190505050610171565b005b60025481565b60005481565b600160009054906101000a900473ffffffffffffffffffffffffffffffffffffffff1681565b600060608373ffffffffffffffffffffffffffffffffffffffff1683604051602401808281526020019150506040516020818303038152906040527f6466414b000000000000000000000000000000000000000000000000000000007bffffffffffffffffffffffffffffffffffffffffffffffffffffffff19166020820180517bffffffffffffffffffffffffffffffffffffffffffffffffffffffff83818316178352505050506040518082805190602001908083835b6020831061024d578051825260208201915060208101905060208303925061022a565b6001836020036101000a038019825116818451168082178552505050505050905001915050600060405180830381855af49150503d80600081146102ad576040519150601f19603f3d011682016040523d82523d6000602084013e6102b2565b606091505b50915091505050505056fea265627a7a72315820612665883c7b9f60fcedf487f27a13717417137f38232471f1bea212d82fb5d764736f6c634300050b0032",
			"opcodes": "PUSH1 0x80 PUSH1 0x40 MSTORE CALLVALUE DUP1 ISZERO PUSH2 0x10 JUMPI PUSH1 0x0 DUP1 REVERT JUMPDEST POP PUSH2 0x2F2 DUP1 PUSH2 0x20 PUSH1 0x0 CODECOPY PUSH1 0x0 RETURN INVALID PUSH1 0x80 PUSH1 0x40 MSTORE PUSH1 0x4 CALLDATASIZE LT PUSH2 0x3F JUMPI PUSH1 0x0 CALLDATALOAD PUSH1 0xE0 SHR DUP1 PUSH4 0x3FA4F245 EQ PUSH2 0x44 JUMPI DUP1 PUSH4 0x4E70B1DC EQ PUSH2 0x6F JUMPI DUP1 PUSH4 0x67E404CE EQ PUSH2 0x9A JUMPI DUP1 PUSH4 0xD1E0F308 EQ PUSH2 0xF1 JUMPI JUMPDEST PUSH1 0x0 DUP1 REVERT JUMPDEST CALLVALUE DUP1 ISZERO PUSH2 0x50 JUMPI PUSH1 0x0 DUP1 REVERT JUMPDEST POP PUSH2 0x59 PUSH2 0x13F JUMP JUMPDEST PUSH1 0x40 MLOAD DUP1 DUP3 DUP2 MSTORE PUSH1 0x20 ADD SWAP2 POP POP PUSH1 0x40 MLOAD DUP1 SWAP2 SUB SWAP1 RETURN JUMPDEST CALLVALUE DUP1 ISZERO PUSH2 0x7B JUMPI PUSH1 0x0 DUP1 REVERT JUMPDEST POP PUSH2 0x84 PUSH2 0x145 JUMP JUMPDEST PUSH1 0x40 MLOAD DUP1 DUP3 DUP2 MSTORE PUSH1 0x20 ADD SWAP2 POP POP PUSH1 0x40 MLOAD DUP1 SWAP2 SUB SWAP1 RETURN JUMPDEST CALLVALUE DUP1 ISZERO PUSH2 0xA6 JUMPI PUSH1 0x0 DUP1 REVERT JUMPDEST POP PUSH2 0xAF PUSH2 0x14B JUMP JUMPDEST PUSH1 0x40 MLOAD DUP1 DUP3 PUSH20 0xFFFFFFFFFFFFFFFFFFFFFFFFFFFFFFFFFFFFFFFF AND PUSH20 0xFFFFFFFFFFFFFFFFFFFFFFFFFFFFFFFFFFFFFFFF AND DUP2 MSTORE PUSH1 0x20 ADD SWAP2 POP POP PUSH1 0x40 MLOAD DUP1 SWAP2 SUB SWAP1 RETURN JUMPDEST PUSH2 0x13D PUSH1 0x4 DUP1 CALLDATASIZE SUB PUSH1 0x40 DUP2 LT ISZERO PUSH2 0x107 JUMPI PUSH1 0x0 DUP1 REVERT JUMPDEST DUP2 ADD SWAP1 DUP1 DUP1 CALLDATALOAD PUSH20 0xFFFFFFFFFFFFFFFFFFFFFFFFFFFFFFFFFFFFFFFF AND SWAP1 PUSH1 0x20 ADD SWAP1 SWAP3 SWAP2 SWAP1 DUP1 CALLDATALOAD SWAP1 PUSH1 0x20 ADD SWAP1 SWAP3 SWAP2 SWAP1 POP POP POP PUSH2 0x171 JUMP JUMPDEST STOP JUMPDEST PUSH1 0x2 SLOAD DUP2 JUMP JUMPDEST PUSH1 0x0 SLOAD DUP2 JUMP JUMPDEST PUSH1 0x1 PUSH1 0x0 SWAP1 SLOAD SWAP1 PUSH2 0x100 EXP SWAP1 DIV PUSH20 0xFFFFFFFFFFFFFFFFFFFFFFFFFFFFFFFFFFFFFFFF AND DUP2 JUMP JUMPDEST PUSH1 0x0 PUSH1 0x60 DUP4 PUSH20 0xFFFFFFFFFFFFFFFFFFFFFFFFFFFFFFFFFFFFFFFF AND DUP4 PUSH1 0x40 MLOAD PUSH1 0x24 ADD DUP1 DUP3 DUP2 MSTORE PUSH1 0x20 ADD SWAP2 POP POP PUSH1 0x40 MLOAD PUSH1 0x20 DUP2 DUP4 SUB SUB DUP2 MSTORE SWAP1 PUSH1 0x40 MSTORE PUSH32 0x6466414B00000000000000000000000000000000000000000000000000000000 PUSH28 0xFFFFFFFFFFFFFFFFFFFFFFFFFFFFFFFFFFFFFFFFFFFFFFFFFFFFFFFF NOT AND PUSH1 0x20 DUP3 ADD DUP1 MLOAD PUSH28 0xFFFFFFFFFFFFFFFFFFFFFFFFFFFFFFFFFFFFFFFFFFFFFFFFFFFFFFFF DUP4 DUP2 DUP4 AND OR DUP4 MSTORE POP POP POP POP PUSH1 0x40 MLOAD DUP1 DUP3 DUP1 MLOAD SWAP1 PUSH1 0x20 ADD SWAP1 DUP1 DUP4 DUP4 JUMPDEST PUSH1 0x20 DUP4 LT PUSH2 0x24D JUMPI DUP1 MLOAD DUP3 MSTORE PUSH1 0x20 DUP3 ADD SWAP2 POP PUSH1 0x20 DUP2 ADD SWAP1 POP PUSH1 0x20 DUP4 SUB SWAP3 POP PUSH2 0x22A JUMP JUMPDEST PUSH1 0x1 DUP4 PUSH1 0x20 SUB PUSH2 0x100 EXP SUB DUP1 NOT DUP3 MLOAD AND DUP2 DUP5 MLOAD AND DUP1 DUP3 OR DUP6 MSTORE POP POP POP POP POP POP SWAP1 POP ADD SWAP2 POP POP PUSH1 0x0 PUSH1 0x40 MLOAD DUP1 DUP4 SUB DUP2 DUP6 GAS DELEGATECALL SWAP2 POP POP RETURNDATASIZE DUP1 PUSH1 0x0 DUP2 EQ PUSH2 0x2AD JUMPI PUSH1 0x40 MLOAD SWAP2 POP PUSH1 0x1F NOT PUSH1 0x3F RETURNDATASIZE ADD AND DUP3 ADD PUSH1 0x40 MSTORE RETURNDATASIZE DUP3 MSTORE RETURNDATASIZE PUSH1 0x0 PUSH1 0x20 DUP5 ADD RETURNDATACOPY PUSH2 0x2B2 JUMP JUMPDEST PUSH1 0x60 SWAP2 POP JUMPDEST POP SWAP2 POP SWAP2 POP POP POP POP POP JUMP INVALID LOG2 PUSH6 0x627A7A723158 KECCAK256 PUSH2 0x2665 DUP9 EXTCODECOPY PUSH28 0x9F60FCEDF487F27A13717417137F38232471F1BEA212D82FB5D76473 PUSH16 0x6C634300050B00320000000000000000 "
		},
		"gasEstimates": {
			"creation": {
				"codeDepositCost": "150800",
				"executionCost": "196",
				"totalCost": "150996"
			},
			"external": {
				"num()": "405",
				"sender()": "475",
				"setVars(address,uint256)": "infinite",
				"value()": "383"
			}
		},
		"methodIdentifiers": {
			"num()": "4e70b1dc",
			"sender()": "67e404ce",
			"setVars(address,uint256)": "d1e0f308",
			"value()": "3fa4f245"
		}
	},
	"abi": [
		{
			"constant": true,
			"inputs": [],
			"name": "value",
			"outputs": [
				{
					"internalType": "uint256",
					"name": "",
					"type": "uint256"
				}
			],
			"payable": false,
			"stateMutability": "view",
			"type": "function"
		},
		{
			"constant": true,
			"inputs": [],
			"name": "num",
			"outputs": [
				{
					"internalType": "uint256",
					"name": "",
					"type": "uint256"
				}
			],
			"payable": false,
			"stateMutability": "view",
			"type": "function"
		},
		{
			"constant": true,
			"inputs": [],
			"name": "sender",
			"outputs": [
				{
					"internalType": "address",
					"name": "",
					"type": "address"
				}
			],
			"payable": false,
			"stateMutability": "view",
			"type": "function"
		},
		{
			"constant": false,
			"inputs": [
				{
					"internalType": "address",
					"name": "_contract",
					"type": "address"
				},
				{
					"internalType": "uint256",
					"name": "_num",
					"type": "uint256"
				}
			],
			"name": "setVars",
			"outputs": [],
			"payable": true,
			"stateMutability": "payable",
			"type": "function"
		}
	]
}