{
	"data": {
		"bytecode": {
			"linkReferences": {},
			"object": "608060405234801561001057600080fd5b5060d08061001f6000396000f3fe6080604052348015600f57600080fd5b5060043610603c5760003560e01c8063371303c01460415780636d4ce63c146049578063b3bcfa82146065575b600080fd5b6047606d565b005b604f607f565b6040518082815260200191505060405180910390f35b606b6088565b005b60016000808282540192505081905550565b60008054905090565b6001600080828254039250508190555056fea264697066735822122039563a1de70c19b3aa3b7ef49a43a5f4c752287190f295b7c3c88be9f58347de64736f6c63430007060033",
			"opcodes": "PUSH1 0x80 PUSH1 0x40 MSTORE CALLVALUE DUP1 ISZERO PUSH2 0x10 JUMPI PUSH1 0x0 DUP1 REVERT JUMPDEST POP PUSH1 0xD0 DUP1 PUSH2 0x1F PUSH1 0x0 CODECOPY PUSH1 0x0 RETURN INVALID PUSH1 0x80 PUSH1 0x40 MSTORE CALLVALUE DUP1 ISZERO PUSH1 0xF JUMPI PUSH1 0x0 DUP1 REVERT JUMPDEST POP PUSH1 0x4 CALLDATASIZE LT PUSH1 0x3C JUMPI PUSH1 0x0 CALLDATALOAD PUSH1 0xE0 SHR DUP1 PUSH4 0x371303C0 EQ PUSH1 0x41 JUMPI DUP1 PUSH4 0x6D4CE63C EQ PUSH1 0x49 JUMPI DUP1 PUSH4 0xB3BCFA82 EQ PUSH1 0x65 JUMPI JUMPDEST PUSH1 0x0 DUP1 REVERT JUMPDEST PUSH1 0x47 PUSH1 0x6D JUMP JUMPDEST STOP JUMPDEST PUSH1 0x4F PUSH1 0x7F JUMP JUMPDEST PUSH1 0x40 MLOAD DUP1 DUP3 DUP2 MSTORE PUSH1 0x20 ADD SWAP2 POP POP PUSH1 0x40 MLOAD DUP1 SWAP2 SUB SWAP1 RETURN JUMPDEST PUSH1 0x6B PUSH1 0x88 JUMP JUMPDEST STOP JUMPDEST PUSH1 0x1 PUSH1 0x0 DUP1 DUP3 DUP3 SLOAD ADD SWAP3 POP POP DUP2 SWAP1 SSTORE POP JUMP JUMPDEST PUSH1 0x0 DUP1 SLOAD SWAP1 POP SWAP1 JUMP JUMPDEST PUSH1 0x1 PUSH1 0x0 DUP1 DUP3 DUP3 SLOAD SUB SWAP3 POP POP DUP2 SWAP1 SSTORE POP JUMP INVALID LOG2 PUSH5 0x6970667358 0x22 SLT KECCAK256 CODECOPY JUMP GASPRICE SAR 0xE7 0xC NOT 0xB3 0xAA EXTCODESIZE PUSH31 0xF49A43A5F4C752287190F295B7C3C88BE9F58347DE64736F6C634300070600 CALLER "
		},
		"gasEstimates": {
			"creation": {
				"codeDepositCost": "41600",
				"executionCost": "93",
				"totalCost": "41693"
			},
			"external": {
				"dec()": "20999",
				"get()": "1013",
				"inc()": "20955"
			}
		},
		"methodIdentifiers": {
			"dec()": "b3bcfa82",
			"get()": "6d4ce63c",
			"inc()": "371303c0"
		}
	},
	"abi": [
		{
			"inputs": [],
			"name": "dec",
			"outputs": [],
			"stateMutability": "nonpayable",
			"type": "function"
		},
		{
			"inputs": [],
			"name": "get",
			"outputs": [
				{
					"internalType": "uint256",
					"name": "",
					"type": "uint256"
				}
			],
			"stateMutability": "view",
			"type": "function"
		},
		{
			"inputs": [],
			"name": "inc",
			"outputs": [],
			"stateMutability": "nonpayable",
			"type": "function"
		}
	]
}