{
	"data": {
		"bytecode": {
			"linkReferences": {},
			"object": "608060405234801561001057600080fd5b5061024f806100206000396000f3fe608060405234801561001057600080fd5b50600436106100575760003560e01c80630cf120da1461005c5780631f69445614610066578063200d2ed214610070578063b6bef7b31461009c578063ea8a1af0146100a6575b600080fd5b6100646100b0565b005b61006e610106565b005b61007861015c565b6040518082600481111561008857fe5b60ff16815260200191505060405180910390f35b6100a461016e565b005b6100ae6101c4565b005b600160048111156100bd57fe5b6000809054906101000a900460ff1660048111156100d757fe5b146100e157600080fd5b60036000806101000a81548160ff021916908360048111156100ff57fe5b0217905550565b6001600481111561011357fe5b6000809054906101000a900460ff16600481111561012d57fe5b1461013757600080fd5b60026000806101000a81548160ff0219169083600481111561015557fe5b0217905550565b6000809054906101000a900460ff1681565b6000600481111561017b57fe5b6000809054906101000a900460ff16600481111561019557fe5b1461019f57600080fd5b60016000806101000a81548160ff021916908360048111156101bd57fe5b0217905550565b600060048111156101d157fe5b6000809054906101000a900460ff1660048111156101eb57fe5b146101f557600080fd5b60046000806101000a81548160ff0219169083600481111561021357fe5b021790555056fea265627a7a723158209bde053c4cd986f5a91179149fac29f143f27de20b9347f5bb8f8f80a2fd05cf64736f6c634300050c0032",
			"opcodes": "PUSH1 0x80 PUSH1 0x40 MSTORE CALLVALUE DUP1 ISZERO PUSH2 0x10 JUMPI PUSH1 0x0 DUP1 REVERT JUMPDEST POP PUSH2 0x24F DUP1 PUSH2 0x20 PUSH1 0x0 CODECOPY PUSH1 0x0 RETURN INVALID PUSH1 0x80 PUSH1 0x40 MSTORE CALLVALUE DUP1 ISZERO PUSH2 0x10 JUMPI PUSH1 0x0 DUP1 REVERT JUMPDEST POP PUSH1 0x4 CALLDATASIZE LT PUSH2 0x57 JUMPI PUSH1 0x0 CALLDATALOAD PUSH1 0xE0 SHR DUP1 PUSH4 0xCF120DA EQ PUSH2 0x5C JUMPI DUP1 PUSH4 0x1F694456 EQ PUSH2 0x66 JUMPI DUP1 PUSH4 0x200D2ED2 EQ PUSH2 0x70 JUMPI DUP1 PUSH4 0xB6BEF7B3 EQ PUSH2 0x9C JUMPI DUP1 PUSH4 0xEA8A1AF0 EQ PUSH2 0xA6 JUMPI JUMPDEST PUSH1 0x0 DUP1 REVERT JUMPDEST PUSH2 0x64 PUSH2 0xB0 JUMP JUMPDEST STOP JUMPDEST PUSH2 0x6E PUSH2 0x106 JUMP JUMPDEST STOP JUMPDEST PUSH2 0x78 PUSH2 0x15C JUMP JUMPDEST PUSH1 0x40 MLOAD DUP1 DUP3 PUSH1 0x4 DUP2 GT ISZERO PUSH2 0x88 JUMPI INVALID JUMPDEST PUSH1 0xFF AND DUP2 MSTORE PUSH1 0x20 ADD SWAP2 POP POP PUSH1 0x40 MLOAD DUP1 SWAP2 SUB SWAP1 RETURN JUMPDEST PUSH2 0xA4 PUSH2 0x16E JUMP JUMPDEST STOP JUMPDEST PUSH2 0xAE PUSH2 0x1C4 JUMP JUMPDEST STOP JUMPDEST PUSH1 0x1 PUSH1 0x4 DUP2 GT ISZERO PUSH2 0xBD JUMPI INVALID JUMPDEST PUSH1 0x0 DUP1 SWAP1 SLOAD SWAP1 PUSH2 0x100 EXP SWAP1 DIV PUSH1 0xFF AND PUSH1 0x4 DUP2 GT ISZERO PUSH2 0xD7 JUMPI INVALID JUMPDEST EQ PUSH2 0xE1 JUMPI PUSH1 0x0 DUP1 REVERT JUMPDEST PUSH1 0x3 PUSH1 0x0 DUP1 PUSH2 0x100 EXP DUP2 SLOAD DUP2 PUSH1 0xFF MUL NOT AND SWAP1 DUP4 PUSH1 0x4 DUP2 GT ISZERO PUSH2 0xFF JUMPI INVALID JUMPDEST MUL OR SWAP1 SSTORE POP JUMP JUMPDEST PUSH1 0x1 PUSH1 0x4 DUP2 GT ISZERO PUSH2 0x113 JUMPI INVALID JUMPDEST PUSH1 0x0 DUP1 SWAP1 SLOAD SWAP1 PUSH2 0x100 EXP SWAP1 DIV PUSH1 0xFF AND PUSH1 0x4 DUP2 GT ISZERO PUSH2 0x12D JUMPI INVALID JUMPDEST EQ PUSH2 0x137 JUMPI PUSH1 0x0 DUP1 REVERT JUMPDEST PUSH1 0x2 PUSH1 0x0 DUP1 PUSH2 0x100 EXP DUP2 SLOAD DUP2 PUSH1 0xFF MUL NOT AND SWAP1 DUP4 PUSH1 0x4 DUP2 GT ISZERO PUSH2 0x155 JUMPI INVALID JUMPDEST MUL OR SWAP1 SSTORE POP JUMP JUMPDEST PUSH1 0x0 DUP1 SWAP1 SLOAD SWAP1 PUSH2 0x100 EXP SWAP1 DIV PUSH1 0xFF AND DUP2 JUMP JUMPDEST PUSH1 0x0 PUSH1 0x4 DUP2 GT ISZERO PUSH2 0x17B JUMPI INVALID JUMPDEST PUSH1 0x0 DUP1 SWAP1 SLOAD SWAP1 PUSH2 0x100 EXP SWAP1 DIV PUSH1 0xFF AND PUSH1 0x4 DUP2 GT ISZERO PUSH2 0x195 JUMPI INVALID JUMPDEST EQ PUSH2 0x19F JUMPI PUSH1 0x0 DUP1 REVERT JUMPDEST PUSH1 0x1 PUSH1 0x0 DUP1 PUSH2 0x100 EXP DUP2 SLOAD DUP2 PUSH1 0xFF MUL NOT AND SWAP1 DUP4 PUSH1 0x4 DUP2 GT ISZERO PUSH2 0x1BD JUMPI INVALID JUMPDEST MUL OR SWAP1 SSTORE POP JUMP JUMPDEST PUSH1 0x0 PUSH1 0x4 DUP2 GT ISZERO PUSH2 0x1D1 JUMPI INVALID JUMPDEST PUSH1 0x0 DUP1 SWAP1 SLOAD SWAP1 PUSH2 0x100 EXP SWAP1 DIV PUSH1 0xFF AND PUSH1 0x4 DUP2 GT ISZERO PUSH2 0x1EB JUMPI INVALID JUMPDEST EQ PUSH2 0x1F5 JUMPI PUSH1 0x0 DUP1 REVERT JUMPDEST PUSH1 0x4 PUSH1 0x0 DUP1 PUSH2 0x100 EXP DUP2 SLOAD DUP2 PUSH1 0xFF MUL NOT AND SWAP1 DUP4 PUSH1 0x4 DUP2 GT ISZERO PUSH2 0x213 JUMPI INVALID JUMPDEST MUL OR SWAP1 SSTORE POP JUMP INVALID LOG2 PUSH6 0x627A7A723158 KECCAK256 SWAP12 0xde SDIV EXTCODECOPY 0x4c 0xd9 DUP7 CREATE2 0xa9 GT PUSH26 0x149FAC29F143F27DE20B9347F5BB8F8F80A2FD05CF64736F6C63 NUMBER STOP SDIV 0xc STOP ORIGIN "
		},
		"gasEstimates": {
			"creation": {
				"codeDepositCost": "118200",
				"executionCost": "165",
				"totalCost": "118365"
			},
			"external": {
				"acceptDelivery()": "20742",
				"cancel()": "20808",
				"rejectDelivery()": "20720",
				"ship()": "20786",
				"status()": "495"
			}
		},
		"methodIdentifiers": {
			"acceptDelivery()": "1f694456",
			"cancel()": "ea8a1af0",
			"rejectDelivery()": "0cf120da",
			"ship()": "b6bef7b3",
			"status()": "200d2ed2"
		}
	},
	"abi": [
		{
			"constant": false,
			"inputs": [],
			"name": "acceptDelivery",
			"outputs": [],
			"payable": false,
			"stateMutability": "nonpayable",
			"type": "function"
		},
		{
			"constant": false,
			"inputs": [],
			"name": "cancel",
			"outputs": [],
			"payable": false,
			"stateMutability": "nonpayable",
			"type": "function"
		},
		{
			"constant": false,
			"inputs": [],
			"name": "rejectDelivery",
			"outputs": [],
			"payable": false,
			"stateMutability": "nonpayable",
			"type": "function"
		},
		{
			"constant": false,
			"inputs": [],
			"name": "ship",
			"outputs": [],
			"payable": false,
			"stateMutability": "nonpayable",
			"type": "function"
		},
		{
			"constant": true,
			"inputs": [],
			"name": "status",
			"outputs": [
				{
					"internalType": "enum Order.Status",
					"name": "",
					"type": "uint8"
				}
			],
			"payable": false,
			"stateMutability": "view",
			"type": "function"
		}
	]
}