{
	"data": {
		"bytecode": {
			"linkReferences": {},
			"object": "608060405234801561001057600080fd5b5060ce8061001f6000396000f3fe6080604052348015600f57600080fd5b506004361060285760003560e01c80632fbebd3814602d575b600080fd5b605660048036036020811015604157600080fd5b8101908080359060200190929190505050606c565b6040518082815260200191505060405180910390f35b6000600a821015607e57600090506093565b6014821015608e57600190506093565b600290505b91905056fea26469706673582212200731369b34f9f52c623ccc7813ee8dd4be0a897611cf52ffadde73c7cadcf59864736f6c63430007060033",
			"opcodes": "PUSH1 0x80 PUSH1 0x40 MSTORE CALLVALUE DUP1 ISZERO PUSH2 0x10 JUMPI PUSH1 0x0 DUP1 REVERT JUMPDEST POP PUSH1 0xCE DUP1 PUSH2 0x1F PUSH1 0x0 CODECOPY PUSH1 0x0 RETURN INVALID PUSH1 0x80 PUSH1 0x40 MSTORE CALLVALUE DUP1 ISZERO PUSH1 0xF JUMPI PUSH1 0x0 DUP1 REVERT JUMPDEST POP PUSH1 0x4 CALLDATASIZE LT PUSH1 0x28 JUMPI PUSH1 0x0 CALLDATALOAD PUSH1 0xE0 SHR DUP1 PUSH4 0x2FBEBD38 EQ PUSH1 0x2D JUMPI JUMPDEST PUSH1 0x0 DUP1 REVERT JUMPDEST PUSH1 0x56 PUSH1 0x4 DUP1 CALLDATASIZE SUB PUSH1 0x20 DUP2 LT ISZERO PUSH1 0x41 JUMPI PUSH1 0x0 DUP1 REVERT JUMPDEST DUP2 ADD SWAP1 DUP1 DUP1 CALLDATALOAD SWAP1 PUSH1 0x20 ADD SWAP1 SWAP3 SWAP2 SWAP1 POP POP POP PUSH1 0x6C JUMP JUMPDEST PUSH1 0x40 MLOAD DUP1 DUP3 DUP2 MSTORE PUSH1 0x20 ADD SWAP2 POP POP PUSH1 0x40 MLOAD DUP1 SWAP2 SUB SWAP1 RETURN JUMPDEST PUSH1 0x0 PUSH1 0xA DUP3 LT ISZERO PUSH1 0x7E JUMPI PUSH1 0x0 SWAP1 POP PUSH1 0x93 JUMP JUMPDEST PUSH1 0x14 DUP3 LT ISZERO PUSH1 0x8E JUMPI PUSH1 0x1 SWAP1 POP PUSH1 0x93 JUMP JUMPDEST PUSH1 0x2 SWAP1 POP JUMPDEST SWAP2 SWAP1 POP JUMP INVALID LOG2 PUSH5 0x6970667358 0x22 SLT KECCAK256 SMOD BALANCE CALLDATASIZE SWAP12 CALLVALUE 0xF9 CREATE2 0x2C PUSH3 0x3CCC78 SGT 0xEE DUP14 0xD4 0xBE EXP DUP10 PUSH23 0x11CF52FFADDE73C7CADCF59864736F6C63430007060033 "
		},
		"gasEstimates": {
			"creation": {
				"codeDepositCost": "41200",
				"executionCost": "93",
				"totalCost": "41293"
			},
			"external": {
				"foo(uint256)": "341"
			}
		},
		"methodIdentifiers": {
			"foo(uint256)": "2fbebd38"
		}
	},
	"abi": [
		{
			"inputs": [
				{
					"internalType": "uint256",
					"name": "x",
					"type": "uint256"
				}
			],
			"name": "foo",
			"outputs": [
				{
					"internalType": "uint256",
					"name": "",
					"type": "uint256"
				}
			],
			"stateMutability": "pure",
			"type": "function"
		}
	]
}